{
  "_format": "hh-sol-artifact-1",
  "contractName": "Faucet",
  "sourceName": "contracts/Faucet.sol",
  "abi": [
    {
      "inputs": [
        {
          "internalType": "address",
          "name": "fooAddress",
          "type": "address"
        }
      ],
      "stateMutability": "nonpayable",
      "type": "constructor"
    },
    {
      "inputs": [
        {
          "internalType": "address",
          "name": "",
          "type": "address"
        }
      ],
      "name": "lockTime",
      "outputs": [
        {
          "internalType": "uint256",
          "name": "",
          "type": "uint256"
        }
      ],
      "stateMutability": "view",
      "type": "function"
    },
    {
      "inputs": [],
      "name": "urvish",
      "outputs": [
        {
          "internalType": "address",
          "name": "",
          "type": "address"
        }
      ],
      "stateMutability": "view",
      "type": "function"
    },
    {
      "inputs": [
        {
          "internalType": "address",
          "name": "to",
          "type": "address"
        },
        {
          "internalType": "uint256",
          "name": "amt",
          "type": "uint256"
        }
      ],
      "name": "withdraw",
      "outputs": [
        {
          "internalType": "bool",
          "name": "",
          "type": "bool"
        }
      ],
      "stateMutability": "nonpayable",
      "type": "function"
    },
    {
      "inputs": [
        {
          "internalType": "address",
          "name": "",
          "type": "address"
        }
      ],
      "name": "withdrawals_balance",
      "outputs": [
        {
          "internalType": "uint256",
          "name": "",
          "type": "uint256"
        }
      ],
      "stateMutability": "view",
      "type": "function"
    }
  ],
  "bytecode": "0x6080604052739f477448f1b96edce91d0e29aa0a1f4e816c9a5f600160006101000a81548173ffffffffffffffffffffffffffffffffffffffff021916908373ffffffffffffffffffffffffffffffffffffffff16021790555034801561006557600080fd5b50604051610c61380380610c6183398181016040528101906100879190610130565b806000806101000a81548173ffffffffffffffffffffffffffffffffffffffff021916908373ffffffffffffffffffffffffffffffffffffffff1602179055505061015d565b600080fd5b600073ffffffffffffffffffffffffffffffffffffffff82169050919050565b60006100fd826100d2565b9050919050565b61010d816100f2565b811461011857600080fd5b50565b60008151905061012a81610104565b92915050565b600060208284031215610146576101456100cd565b5b60006101548482850161011b565b91505092915050565b610af58061016c6000396000f3fe608060405234801561001057600080fd5b506004361061004c5760003560e01c806307e0e22014610051578063772eec1f14610081578063a4beda631461009f578063f3fef3a3146100cf575b600080fd5b61006b6004803603810190610066919061071a565b6100ff565b6040516100789190610760565b60405180910390f35b610089610117565b604051610096919061078a565b60405180910390f35b6100b960048036038101906100b4919061071a565b61013d565b6040516100c69190610760565b60405180910390f35b6100e960048036038101906100e491906107d1565b610155565b6040516100f6919061082c565b60405180910390f35b60036020528060005260406000206000915090505481565b600160009054906101000a900473ffffffffffffffffffffffffffffffffffffffff1681565b60026020528060005260406000206000915090505481565b600080670de0b6b3a76400008361016c9190610876565b90506000600260008673ffffffffffffffffffffffffffffffffffffffff1673ffffffffffffffffffffffffffffffffffffffff16815260200190815260200160002054146104d657426078600260008773ffffffffffffffffffffffffffffffffffffffff1673ffffffffffffffffffffffffffffffffffffffff1681526020019081526020016000205461020291906108b8565b1161024d576000600360008673ffffffffffffffffffffffffffffffffffffffff1673ffffffffffffffffffffffffffffffffffffffff168152602001908152602001600020819055505b600360008573ffffffffffffffffffffffffffffffffffffffff1673ffffffffffffffffffffffffffffffffffffffff1681526020019081526020016000205468056bc75e2d631000006102a191906108ec565b8111156102e3576040517f08c379a00000000000000000000000000000000000000000000000000000000081526004016102da906109a3565b60405180910390fd5b60008054906101000a900473ffffffffffffffffffffffffffffffffffffffff1673ffffffffffffffffffffffffffffffffffffffff166323b872dd600160009054906101000a900473ffffffffffffffffffffffffffffffffffffffff1686846040518463ffffffff1660e01b8152600401610362939291906109c3565b6020604051808303816000875af1158015610381573d6000803e3d6000fd5b505050506040513d601f19601f820116820180604052508101906103a59190610a26565b6103e4576040517f08c379a00000000000000000000000000000000000000000000000000000000081526004016103db90610a9f565b60405180910390fd5b80600360008673ffffffffffffffffffffffffffffffffffffffff1673ffffffffffffffffffffffffffffffffffffffff168152602001908152602001600020600082825461043391906108b8565b92505081905550426078600260008773ffffffffffffffffffffffffffffffffffffffff1673ffffffffffffffffffffffffffffffffffffffff1681526020019081526020016000205461048791906108b8565b116104d15742600260008673ffffffffffffffffffffffffffffffffffffffff1673ffffffffffffffffffffffffffffffffffffffff168152602001908152602001600020819055505b6106ac565b68056bc75e2d63100000811115610522576040517f08c379a0000000000000000000000000000000000000000000000000000000008152600401610519906109a3565b60405180910390fd5b60008054906101000a900473ffffffffffffffffffffffffffffffffffffffff1673ffffffffffffffffffffffffffffffffffffffff166323b872dd600160009054906101000a900473ffffffffffffffffffffffffffffffffffffffff1686846040518463ffffffff1660e01b81526004016105a1939291906109c3565b6020604051808303816000875af11580156105c0573d6000803e3d6000fd5b505050506040513d601f19601f820116820180604052508101906105e49190610a26565b610623576040517f08c379a000000000000000000000000000000000000000000000000000000000815260040161061a90610a9f565b60405180910390fd5b80600360008673ffffffffffffffffffffffffffffffffffffffff1673ffffffffffffffffffffffffffffffffffffffff1681526020019081526020016000208190555042600260008673ffffffffffffffffffffffffffffffffffffffff1673ffffffffffffffffffffffffffffffffffffffff168152602001908152602001600020819055505b600191505092915050565b600080fd5b600073ffffffffffffffffffffffffffffffffffffffff82169050919050565b60006106e7826106bc565b9050919050565b6106f7816106dc565b811461070257600080fd5b50565b600081359050610714816106ee565b92915050565b6000602082840312156107305761072f6106b7565b5b600061073e84828501610705565b91505092915050565b6000819050919050565b61075a81610747565b82525050565b60006020820190506107756000830184610751565b92915050565b610784816106dc565b82525050565b600060208201905061079f600083018461077b565b92915050565b6107ae81610747565b81146107b957600080fd5b50565b6000813590506107cb816107a5565b92915050565b600080604083850312156107e8576107e76106b7565b5b60006107f685828601610705565b9250506020610807858286016107bc565b9150509250929050565b60008115159050919050565b61082681610811565b82525050565b6000602082019050610841600083018461081d565b92915050565b7f4e487b7100000000000000000000000000000000000000000000000000000000600052601160045260246000fd5b600061088182610747565b915061088c83610747565b925082820261089a81610747565b915082820484148315176108b1576108b0610847565b5b5092915050565b60006108c382610747565b91506108ce83610747565b92508282019050808211156108e6576108e5610847565b5b92915050565b60006108f782610747565b915061090283610747565b925082820390508181111561091a57610919610847565b5b92915050565b600082825260208201905092915050565b7f796f752063616e20636c696d65206f6e6c792031303020636f696e7320696e2060008201527f3234480000000000000000000000000000000000000000000000000000000000602082015250565b600061098d602383610920565b915061099882610931565b604082019050919050565b600060208201905081810360008301526109bc81610980565b9050919050565b60006060820190506109d8600083018661077b565b6109e5602083018561077b565b6109f26040830184610751565b949350505050565b610a0381610811565b8114610a0e57600080fd5b50565b600081519050610a20816109fa565b92915050565b600060208284031215610a3c57610a3b6106b7565b5b6000610a4a84828501610a11565b91505092915050565b7f4465706f7369742069732066616c6c0000000000000000000000000000000000600082015250565b6000610a89600f83610920565b9150610a9482610a53565b602082019050919050565b60006020820190508181036000830152610ab881610a7c565b905091905056fea2646970667358221220f32727165f8d4b9740dd2ec195806199b850732ddd993510adf6cb8fc6f0621964736f6c63430008110033",
  "linkReferences": {},
  "deployedLinkReferences": {}
}